{
    "_format": "hh-sol-artifact-1",
    "contractName": "MyToken721",
    "sourceName": "contracts/MyToken721.sol",
    "abi": [
        {
            "inputs": [],
            "stateMutability": "nonpayable",
            "type": "constructor"
        },
        {
            "anonymous": false,
            "inputs": [
                {
                    "indexed": true,
                    "internalType": "address",
                    "name": "owner",
                    "type": "address"
                },
                {
                    "indexed": true,
                    "internalType": "address",
                    "name": "approved",
                    "type": "address"
                },
                {
                    "indexed": true,
                    "internalType": "uint256",
                    "name": "tokenId",
                    "type": "uint256"
                }
            ],
            "name": "Approval",
            "type": "event"
        },
        {
            "anonymous": false,
            "inputs": [
                {
                    "indexed": true,
                    "internalType": "address",
                    "name": "owner",
                    "type": "address"
                },
                {
                    "indexed": true,
                    "internalType": "address",
                    "name": "operator",
                    "type": "address"
                },
                {
                    "indexed": false,
                    "internalType": "bool",
                    "name": "approved",
                    "type": "bool"
                }
            ],
            "name": "ApprovalForAll",
            "type": "event"
        },
        {
            "anonymous": false,
            "inputs": [
                {
                    "indexed": true,
                    "internalType": "address",
                    "name": "previousOwner",
                    "type": "address"
                },
                {
                    "indexed": true,
                    "internalType": "address",
                    "name": "newOwner",
                    "type": "address"
                }
            ],
            "name": "OwnershipTransferred",
            "type": "event"
        },
        {
            "anonymous": false,
            "inputs": [
                {
                    "indexed": true,
                    "internalType": "address",
                    "name": "from",
                    "type": "address"
                },
                {
                    "indexed": true,
                    "internalType": "address",
                    "name": "to",
                    "type": "address"
                },
                {
                    "indexed": true,
                    "internalType": "uint256",
                    "name": "tokenId",
                    "type": "uint256"
                }
            ],
            "name": "Transfer",
            "type": "event"
        },
        {
            "inputs": [
                {
                    "internalType": "address",
                    "name": "to",
                    "type": "address"
                },
                {
                    "internalType": "uint256",
                    "name": "tokenId",
                    "type": "uint256"
                }
            ],
            "name": "approve",
            "outputs": [],
            "stateMutability": "nonpayable",
            "type": "function"
        },
        {
            "inputs": [
                {
                    "internalType": "address",
                    "name": "owner",
                    "type": "address"
                }
            ],
            "name": "balanceOf",
            "outputs": [
                {
                    "internalType": "uint256",
                    "name": "",
                    "type": "uint256"
                }
            ],
            "stateMutability": "view",
            "type": "function"
        },
        {
            "inputs": [
                {
                    "internalType": "uint256",
                    "name": "tokenId",
                    "type": "uint256"
                }
            ],
            "name": "getApproved",
            "outputs": [
                {
                    "internalType": "address",
                    "name": "",
                    "type": "address"
                }
            ],
            "stateMutability": "view",
            "type": "function"
        },
        {
            "inputs": [
                {
                    "internalType": "address",
                    "name": "owner",
                    "type": "address"
                },
                {
                    "internalType": "address",
                    "name": "operator",
                    "type": "address"
                }
            ],
            "name": "isApprovedForAll",
            "outputs": [
                {
                    "internalType": "bool",
                    "name": "",
                    "type": "bool"
                }
            ],
            "stateMutability": "view",
            "type": "function"
        },
        {
            "inputs": [],
            "name": "name",
            "outputs": [
                {
                    "internalType": "string",
                    "name": "",
                    "type": "string"
                }
            ],
            "stateMutability": "view",
            "type": "function"
        },
        {
            "inputs": [],
            "name": "owner",
            "outputs": [
                {
                    "internalType": "address",
                    "name": "",
                    "type": "address"
                }
            ],
            "stateMutability": "view",
            "type": "function"
        },
        {
            "inputs": [
                {
                    "internalType": "uint256",
                    "name": "tokenId",
                    "type": "uint256"
                }
            ],
            "name": "ownerOf",
            "outputs": [
                {
                    "internalType": "address",
                    "name": "",
                    "type": "address"
                }
            ],
            "stateMutability": "view",
            "type": "function"
        },
        {
            "inputs": [],
            "name": "renounceOwnership",
            "outputs": [],
            "stateMutability": "nonpayable",
            "type": "function"
        },
        {
            "inputs": [
                {
                    "internalType": "address",
                    "name": "to",
                    "type": "address"
                }
            ],
            "name": "safeMint",
            "outputs": [],
            "stateMutability": "nonpayable",
            "type": "function"
        },
        {
            "inputs": [
                {
                    "internalType": "address",
                    "name": "from",
                    "type": "address"
                },
                {
                    "internalType": "address",
                    "name": "to",
                    "type": "address"
                },
                {
                    "internalType": "uint256",
                    "name": "tokenId",
                    "type": "uint256"
                }
            ],
            "name": "safeTransferFrom",
            "outputs": [],
            "stateMutability": "nonpayable",
            "type": "function"
        },
        {
            "inputs": [
                {
                    "internalType": "address",
                    "name": "from",
                    "type": "address"
                },
                {
                    "internalType": "address",
                    "name": "to",
                    "type": "address"
                },
                {
                    "internalType": "uint256",
                    "name": "tokenId",
                    "type": "uint256"
                },
                {
                    "internalType": "bytes",
                    "name": "data",
                    "type": "bytes"
                }
            ],
            "name": "safeTransferFrom",
            "outputs": [],
            "stateMutability": "nonpayable",
            "type": "function"
        },
        {
            "inputs": [
                {
                    "internalType": "address",
                    "name": "operator",
                    "type": "address"
                },
                {
                    "internalType": "bool",
                    "name": "approved",
                    "type": "bool"
                }
            ],
            "name": "setApprovalForAll",
            "outputs": [],
            "stateMutability": "nonpayable",
            "type": "function"
        },
        {
            "inputs": [
                {
                    "internalType": "bytes4",
                    "name": "interfaceId",
                    "type": "bytes4"
                }
            ],
            "name": "supportsInterface",
            "outputs": [
                {
                    "internalType": "bool",
                    "name": "",
                    "type": "bool"
                }
            ],
            "stateMutability": "view",
            "type": "function"
        },
        {
            "inputs": [],
            "name": "symbol",
            "outputs": [
                {
                    "internalType": "string",
                    "name": "",
                    "type": "string"
                }
            ],
            "stateMutability": "view",
            "type": "function"
        },
        {
            "inputs": [
                {
                    "internalType": "uint256",
                    "name": "tokenId",
                    "type": "uint256"
                }
            ],
            "name": "tokenURI",
            "outputs": [
                {
                    "internalType": "string",
                    "name": "",
                    "type": "string"
                }
            ],
            "stateMutability": "view",
            "type": "function"
        },
        {
            "inputs": [
                {
                    "internalType": "address",
                    "name": "from",
                    "type": "address"
                },
                {
                    "internalType": "address",
                    "name": "to",
                    "type": "address"
                },
                {
                    "internalType": "uint256",
                    "name": "tokenId",
                    "type": "uint256"
                }
            ],
            "name": "transferFrom",
            "outputs": [],
            "stateMutability": "nonpayable",
            "type": "function"
        },
        {
            "inputs": [
                {
                    "internalType": "address",
                    "name": "newOwner",
                    "type": "address"
                }
            ],
            "name": "transferOwnership",
            "outputs": [],
            "stateMutability": "nonpayable",
            "type": "function"
        }
    ],
    "bytecode": "0x60806040523480156200001157600080fd5b50604080518082018252600a81527f4d79546f6b656e3732310000000000000000000000000000000000000000000060208083019182528351808501909452600684527f4d544b37323100000000000000000000000000000000000000000000000000009084015281519192916200008c916000916200011b565b508051620000a29060019060208401906200011b565b505050620000bf620000b9620000c560201b60201c565b620000c9565b62000217565b3390565b600680546001600160a01b038381166001600160a01b0319831681179093556040519116919082907f8be0079c531659141344cd1fd0a4f28419497f9722a3daafe3b4186f6b6457e090600090a35050565b8280546200012990620001c1565b90600052602060002090601f0160209004810192826200014d576000855562000198565b82601f106200016857805160ff191683800117855562000198565b8280016001018555821562000198579182015b82811115620001985782518255916020019190600101906200017b565b50620001a6929150620001aa565b5090565b5b80821115620001a65760008155600101620001ab565b600181811c90821680620001d657607f821691505b6020821081141562000211577f4e487b7100000000000000000000000000000000000000000000000000000000600052602260045260246000fd5b50919050565b6114b280620002276000396000f3fe608060405234801561001057600080fd5b506004361061010b5760003560e01c806370a08231116100a2578063a22cb46511610071578063a22cb4651461021b578063b88d4fde1461022e578063c87b56dd14610241578063e985e9c514610254578063f2fde38b1461029057600080fd5b806370a08231146101d9578063715018a6146101fa5780638da5cb5b1461020257806395d89b411461021357600080fd5b806323b872dd116100de57806323b872dd1461018d57806340d097c3146101a057806342842e0e146101b35780636352211e146101c657600080fd5b806301ffc9a71461011057806306fdde0314610138578063081812fc1461014d578063095ea7b314610178575b600080fd5b61012361011e366004611197565b6102a3565b60405190151581526020015b60405180910390f35b6101406102f5565b60405161012f9190611282565b61016061015b3660046111d1565b610387565b6040516001600160a01b03909116815260200161012f565b61018b61018636600461116d565b6103ae565b005b61018b61019b366004611019565b6104c9565b61018b6101ae366004610fcb565b6104fa565b61018b6101c1366004611019565b61052b565b6101606101d43660046111d1565b610546565b6101ec6101e7366004610fcb565b6105a6565b60405190815260200161012f565b61018b61062c565b6006546001600160a01b0316610160565b610140610640565b61018b610229366004611131565b61064f565b61018b61023c366004611055565b61065a565b61014061024f3660046111d1565b610692565b610123610262366004610fe6565b6001600160a01b03918216600090815260056020908152604080832093909416825291909152205460ff1690565b61018b61029e366004610fcb565b610706565b60006001600160e01b031982166380ac58cd60e01b14806102d457506001600160e01b03198216635b5e139f60e01b145b806102ef57506301ffc9a760e01b6001600160e01b03198316145b92915050565b606060008054610304906113a4565b80601f0160208091040260200160405190810160405280929190818152602001828054610330906113a4565b801561037d5780601f106103525761010080835404028352916020019161037d565b820191906000526020600020905b81548152906001019060200180831161036057829003601f168201915b5050505050905090565b60006103928261077f565b506000908152600460205260409020546001600160a01b031690565b60006103b982610546565b9050806001600160a01b0316836001600160a01b0316141561042c5760405162461bcd60e51b815260206004820152602160248201527f4552433732313a20617070726f76616c20746f2063757272656e74206f776e656044820152603960f91b60648201526084015b60405180910390fd5b336001600160a01b038216148061044857506104488133610262565b6104ba5760405162461bcd60e51b815260206004820152603e60248201527f4552433732313a20617070726f76652063616c6c6572206973206e6f7420746f60448201527f6b656e206f776e6572206e6f7220617070726f76656420666f7220616c6c00006064820152608401610423565b6104c483836107de565b505050565b6104d3338261084c565b6104ef5760405162461bcd60e51b8152600401610423906112e7565b6104c48383836108cb565b610502610a67565b600061050d60075490565b905061051d600780546001019055565b6105278282610ac1565b5050565b6104c48383836040518060200160405280600081525061065a565b6000818152600260205260408120546001600160a01b0316806102ef5760405162461bcd60e51b8152602060048201526018602482015277115490cdcc8c4e881a5b9d985b1a59081d1bdad95b88125160421b6044820152606401610423565b60006001600160a01b0382166106105760405162461bcd60e51b815260206004820152602960248201527f4552433732313a2061646472657373207a65726f206973206e6f7420612076616044820152683634b21037bbb732b960b91b6064820152608401610423565b506001600160a01b031660009081526003602052604090205490565b610634610a67565b61063e6000610adb565b565b606060018054610304906113a4565b610527338383610b2d565b610664338361084c565b6106805760405162461bcd60e51b8152600401610423906112e7565b61068c84848484610bfc565b50505050565b606061069d8261077f565b60006106b460408051602081019091526000815290565b905060008151116106d457604051806020016040528060008152506106ff565b806106de84610c2f565b6040516020016106ef929190611216565b6040516020818303038152906040525b9392505050565b61070e610a67565b6001600160a01b0381166107735760405162461bcd60e51b815260206004820152602660248201527f4f776e61626c653a206e6577206f776e657220697320746865207a65726f206160448201526564647265737360d01b6064820152608401610423565b61077c81610adb565b50565b6000818152600260205260409020546001600160a01b031661077c5760405162461bcd60e51b8152602060048201526018602482015277115490cdcc8c4e881a5b9d985b1a59081d1bdad95b88125160421b6044820152606401610423565b600081815260046020526040902080546001600160a01b0319166001600160a01b038416908117909155819061081382610546565b6001600160a01b03167f8c5be1e5ebec7d5bd14f71427d1e84f3dd0314c0f7b2291e5b200ac8c7c3b92560405160405180910390a45050565b60008061085883610546565b9050806001600160a01b0316846001600160a01b0316148061089f57506001600160a01b0380821660009081526005602090815260408083209388168352929052205460ff165b806108c35750836001600160a01b03166108b884610387565b6001600160a01b0316145b949350505050565b826001600160a01b03166108de82610546565b6001600160a01b0316146109425760405162461bcd60e51b815260206004820152602560248201527f4552433732313a207472616e736665722066726f6d20696e636f72726563742060448201526437bbb732b960d91b6064820152608401610423565b6001600160a01b0382166109a45760405162461bcd60e51b8152602060048201526024808201527f4552433732313a207472616e7366657220746f20746865207a65726f206164646044820152637265737360e01b6064820152608401610423565b6109af6000826107de565b6001600160a01b03831660009081526003602052604081208054600192906109d8908490611361565b90915550506001600160a01b0382166000908152600360205260408120805460019290610a06908490611335565b909155505060008181526002602052604080822080546001600160a01b0319166001600160a01b0386811691821790925591518493918716917fddf252ad1be2c89b69c2b068fc378daa952ba7f163c4a11628f55a4df523b3ef91a4505050565b6006546001600160a01b0316331461063e5760405162461bcd60e51b815260206004820181905260248201527f4f776e61626c653a2063616c6c6572206973206e6f7420746865206f776e65726044820152606401610423565b610527828260405180602001604052806000815250610d2d565b600680546001600160a01b038381166001600160a01b0319831681179093556040519116919082907f8be0079c531659141344cd1fd0a4f28419497f9722a3daafe3b4186f6b6457e090600090a35050565b816001600160a01b0316836001600160a01b03161415610b8f5760405162461bcd60e51b815260206004820152601960248201527f4552433732313a20617070726f766520746f2063616c6c6572000000000000006044820152606401610423565b6001600160a01b03838116600081815260056020908152604080832094871680845294825291829020805460ff191686151590811790915591519182527f17307eab39ab6107e8899845ad3d59bd9653f200f220920489ca2b5937696c31910160405180910390a3505050565b610c078484846108cb565b610c1384848484610d60565b61068c5760405162461bcd60e51b815260040161042390611295565b606081610c535750506040805180820190915260018152600360fc1b602082015290565b8160005b8115610c7d5780610c67816113df565b9150610c769050600a8361134d565b9150610c57565b60008167ffffffffffffffff811115610c9857610c98611450565b6040519080825280601f01601f191660200182016040528015610cc2576020820181803683370190505b5090505b84156108c357610cd7600183611361565b9150610ce4600a866113fa565b610cef906030611335565b60f81b818381518110610d0457610d0461143a565b60200101906001600160f81b031916908160001a905350610d26600a8661134d565b9450610cc6565b610d378383610e6d565b610d446000848484610d60565b6104c45760405162461bcd60e51b815260040161042390611295565b60006001600160a01b0384163b15610e6257604051630a85bd0160e11b81526001600160a01b0385169063150b7a0290610da4903390899088908890600401611245565b602060405180830381600087803b158015610dbe57600080fd5b505af1925050508015610dee575060408051601f3d908101601f19168201909252610deb918101906111b4565b60015b610e48573d808015610e1c576040519150601f19603f3d011682016040523d82523d6000602084013e610e21565b606091505b508051610e405760405162461bcd60e51b815260040161042390611295565b805181602001fd5b6001600160e01b031916630a85bd0160e11b1490506108c3565b506001949350505050565b6001600160a01b038216610ec35760405162461bcd60e51b815260206004820181905260248201527f4552433732313a206d696e7420746f20746865207a65726f20616464726573736044820152606401610423565b6000818152600260205260409020546001600160a01b031615610f285760405162461bcd60e51b815260206004820152601c60248201527f4552433732313a20746f6b656e20616c7265616479206d696e746564000000006044820152606401610423565b6001600160a01b0382166000908152600360205260408120805460019290610f51908490611335565b909155505060008181526002602052604080822080546001600160a01b0319166001600160a01b03861690811790915590518392907fddf252ad1be2c89b69c2b068fc378daa952ba7f163c4a11628f55a4df523b3ef908290a45050565b80356001600160a01b0381168114610fc657600080fd5b919050565b600060208284031215610fdd57600080fd5b6106ff82610faf565b60008060408385031215610ff957600080fd5b61100283610faf565b915061101060208401610faf565b90509250929050565b60008060006060848603121561102e57600080fd5b61103784610faf565b925061104560208501610faf565b9150604084013590509250925092565b6000806000806080858703121561106b57600080fd5b61107485610faf565b935061108260208601610faf565b925060408501359150606085013567ffffffffffffffff808211156110a657600080fd5b818701915087601f8301126110ba57600080fd5b8135818111156110cc576110cc611450565b604051601f8201601f19908116603f011681019083821181831017156110f4576110f4611450565b816040528281528a602084870101111561110d57600080fd5b82602086016020830137600060208483010152809550505050505092959194509250565b6000806040838503121561114457600080fd5b61114d83610faf565b91506020830135801515811461116257600080fd5b809150509250929050565b6000806040838503121561118057600080fd5b61118983610faf565b946020939093013593505050565b6000602082840312156111a957600080fd5b81356106ff81611466565b6000602082840312156111c657600080fd5b81516106ff81611466565b6000602082840312156111e357600080fd5b5035919050565b60008151808452611202816020860160208601611378565b601f01601f19169290920160200192915050565b60008351611228818460208801611378565b83519083019061123c818360208801611378565b01949350505050565b6001600160a01b0385811682528416602082015260408101839052608060608201819052600090611278908301846111ea565b9695505050505050565b6020815260006106ff60208301846111ea565b60208082526032908201527f4552433732313a207472616e7366657220746f206e6f6e20455243373231526560408201527131b2b4bb32b91034b6b83632b6b2b73a32b960711b606082015260800190565b6020808252602e908201527f4552433732313a2063616c6c6572206973206e6f7420746f6b656e206f776e6560408201526d1c881b9bdc88185c1c1c9bdd995960921b606082015260800190565b600082198211156113485761134861140e565b500190565b60008261135c5761135c611424565b500490565b6000828210156113735761137361140e565b500390565b60005b8381101561139357818101518382015260200161137b565b8381111561068c5750506000910152565b600181811c908216806113b857607f821691505b602082108114156113d957634e487b7160e01b600052602260045260246000fd5b50919050565b60006000198214156113f3576113f361140e565b5060010190565b60008261140957611409611424565b500690565b634e487b7160e01b600052601160045260246000fd5b634e487b7160e01b600052601260045260246000fd5b634e487b7160e01b600052603260045260246000fd5b634e487b7160e01b600052604160045260246000fd5b6001600160e01b03198116811461077c57600080fdfea26469706673582212202db639ccada46d9b0558428f79d8a6ce2091c69755c7321fbc1f4077a77aef2264736f6c63430008050033",
    "linkReferences": {},
    "deployedLinkReferences": {}
}