{
  "_format": "hh-sol-artifact-1",
  "contractName": "RentERC721",
  "sourceName": "contracts/RentERC721.sol",
  "abi": [
    {
      "inputs": [],
      "stateMutability": "nonpayable",
      "type": "constructor"
    },
    {
      "anonymous": false,
      "inputs": [
        {
          "indexed": false,
          "internalType": "address",
          "name": "from_address",
          "type": "address"
        },
        {
          "indexed": false,
          "internalType": "address",
          "name": "collection_address",
          "type": "address"
        },
        {
          "indexed": false,
          "internalType": "uint256",
          "name": "token_id",
          "type": "uint256"
        }
      ],
      "name": "Collateralwithdraw",
      "type": "event"
    },
    {
      "anonymous": false,
      "inputs": [
        {
          "indexed": false,
          "internalType": "address",
          "name": "from_address",
          "type": "address"
        },
        {
          "indexed": false,
          "internalType": "address",
          "name": "collection_address",
          "type": "address"
        },
        {
          "indexed": false,
          "internalType": "uint256",
          "name": "token_id",
          "type": "uint256"
        }
      ],
      "name": "NFTkicked",
      "type": "event"
    },
    {
      "anonymous": false,
      "inputs": [
        {
          "indexed": false,
          "internalType": "address",
          "name": "from_address",
          "type": "address"
        },
        {
          "indexed": false,
          "internalType": "address",
          "name": "collection_address",
          "type": "address"
        },
        {
          "indexed": false,
          "internalType": "uint256",
          "name": "token_id",
          "type": "uint256"
        },
        {
          "indexed": false,
          "internalType": "address",
          "name": "collateral_token",
          "type": "address"
        },
        {
          "indexed": false,
          "internalType": "uint256",
          "name": "collateral_amount",
          "type": "uint256"
        },
        {
          "indexed": false,
          "internalType": "uint256",
          "name": "max_rent_duration",
          "type": "uint256"
        },
        {
          "indexed": false,
          "internalType": "uint256",
          "name": "rent_fee_per_block",
          "type": "uint256"
        }
      ],
      "name": "NFTlist",
      "type": "event"
    },
    {
      "anonymous": false,
      "inputs": [
        {
          "indexed": false,
          "internalType": "address",
          "name": "from_address",
          "type": "address"
        },
        {
          "indexed": false,
          "internalType": "address",
          "name": "collection_address",
          "type": "address"
        },
        {
          "indexed": false,
          "internalType": "uint256",
          "name": "token_id",
          "type": "uint256"
        }
      ],
      "name": "NFTlistcancel",
      "type": "event"
    },
    {
      "anonymous": false,
      "inputs": [
        {
          "indexed": false,
          "internalType": "address",
          "name": "from_address",
          "type": "address"
        },
        {
          "indexed": false,
          "internalType": "address",
          "name": "collection_address",
          "type": "address"
        },
        {
          "indexed": false,
          "internalType": "uint256",
          "name": "token_id",
          "type": "uint256"
        },
        {
          "indexed": false,
          "internalType": "enum RentERC721.PARAMETER[]",
          "name": "parameter",
          "type": "uint8[]"
        },
        {
          "indexed": false,
          "internalType": "uint256[]",
          "name": "input",
          "type": "uint256[]"
        }
      ],
      "name": "NFTlistmodified",
      "type": "event"
    },
    {
      "anonymous": false,
      "inputs": [
        {
          "indexed": false,
          "internalType": "address",
          "name": "from_address",
          "type": "address"
        },
        {
          "indexed": false,
          "internalType": "address",
          "name": "collection_address",
          "type": "address"
        },
        {
          "indexed": false,
          "internalType": "uint256",
          "name": "token_id",
          "type": "uint256"
        },
        {
          "indexed": false,
          "internalType": "uint256",
          "name": "rented_block",
          "type": "uint256"
        },
        {
          "indexed": false,
          "internalType": "uint256",
          "name": "rent_duration",
          "type": "uint256"
        },
        {
          "indexed": false,
          "internalType": "uint256",
          "name": "rent_fee",
          "type": "uint256"
        }
      ],
      "name": "NFTrented",
      "type": "event"
    },
    {
      "anonymous": false,
      "inputs": [
        {
          "indexed": false,
          "internalType": "address",
          "name": "from_address",
          "type": "address"
        },
        {
          "indexed": false,
          "internalType": "address",
          "name": "collection_address",
          "type": "address"
        },
        {
          "indexed": false,
          "internalType": "uint256",
          "name": "token_id",
          "type": "uint256"
        }
      ],
      "name": "NFTreturned",
      "type": "event"
    },
    {
      "anonymous": false,
      "inputs": [
        {
          "indexed": true,
          "internalType": "address",
          "name": "previousOwner",
          "type": "address"
        },
        {
          "indexed": true,
          "internalType": "address",
          "name": "newOwner",
          "type": "address"
        }
      ],
      "name": "OwnershipTransferred",
      "type": "event"
    },
    {
      "inputs": [
        {
          "internalType": "address",
          "name": "collection_address",
          "type": "address"
        },
        {
          "internalType": "uint256",
          "name": "token_id",
          "type": "uint256"
        }
      ],
      "name": "cancellist",
      "outputs": [],
      "stateMutability": "nonpayable",
      "type": "function"
    },
    {
      "inputs": [
        {
          "internalType": "address",
          "name": "collection_address",
          "type": "address"
        },
        {
          "internalType": "uint256",
          "name": "token_id",
          "type": "uint256"
        }
      ],
      "name": "emergencycancel",
      "outputs": [],
      "stateMutability": "nonpayable",
      "type": "function"
    },
    {
      "inputs": [],
      "name": "execution_delay",
      "outputs": [
        {
          "internalType": "uint256",
          "name": "",
          "type": "uint256"
        }
      ],
      "stateMutability": "view",
      "type": "function"
    },
    {
      "inputs": [],
      "name": "fee_collector",
      "outputs": [
        {
          "internalType": "address",
          "name": "",
          "type": "address"
        }
      ],
      "stateMutability": "view",
      "type": "function"
    },
    {
      "inputs": [],
      "name": "fee_denominator",
      "outputs": [
        {
          "internalType": "uint256",
          "name": "",
          "type": "uint256"
        }
      ],
      "stateMutability": "view",
      "type": "function"
    },
    {
      "inputs": [
        {
          "internalType": "address",
          "name": "collection_address",
          "type": "address"
        },
        {
          "internalType": "uint256",
          "name": "token_id",
          "type": "uint256"
        }
      ],
      "name": "kick",
      "outputs": [],
      "stateMutability": "nonpayable",
      "type": "function"
    },
    {
      "inputs": [],
      "name": "kick_incentive",
      "outputs": [
        {
          "internalType": "uint256",
          "name": "",
          "type": "uint256"
        }
      ],
      "stateMutability": "view",
      "type": "function"
    },
    {
      "inputs": [
        {
          "internalType": "address",
          "name": "collection_address",
          "type": "address"
        },
        {
          "internalType": "address",
          "name": "_collateral_token",
          "type": "address"
        },
        {
          "internalType": "uint256",
          "name": "token_id",
          "type": "uint256"
        },
        {
          "internalType": "uint256",
          "name": "_maxrent_duration",
          "type": "uint256"
        },
        {
          "internalType": "uint256",
          "name": "_collateral_amount",
          "type": "uint256"
        },
        {
          "internalType": "uint256",
          "name": "_rent_fee_per_block",
          "type": "uint256"
        }
      ],
      "name": "listNFT",
      "outputs": [],
      "stateMutability": "nonpayable",
      "type": "function"
    },
    {
      "inputs": [
        {
          "internalType": "address",
          "name": "collection_address",
          "type": "address"
        },
        {
          "internalType": "uint256",
          "name": "token_id",
          "type": "uint256"
        },
        {
          "internalType": "enum RentERC721.PARAMETER[]",
          "name": "_parameter",
          "type": "uint8[]"
        },
        {
          "internalType": "uint256[]",
          "name": "_input",
          "type": "uint256[]"
        }
      ],
      "name": "modifylist",
      "outputs": [],
      "stateMutability": "nonpayable",
      "type": "function"
    },
    {
      "inputs": [
        {
          "internalType": "address",
          "name": "",
          "type": "address"
        },
        {
          "internalType": "uint256",
          "name": "",
          "type": "uint256"
        }
      ],
      "name": "nftinfo",
      "outputs": [
        {
          "components": [
            {
              "internalType": "address",
              "name": "lender_address",
              "type": "address"
            },
            {
              "internalType": "address",
              "name": "collateral_token",
              "type": "address"
            },
            {
              "internalType": "uint256",
              "name": "maxrent_duration",
              "type": "uint256"
            },
            {
              "internalType": "uint256",
              "name": "collateral_amount",
              "type": "uint256"
            },
            {
              "internalType": "uint256",
              "name": "rent_fee_per_block",
              "type": "uint256"
            }
          ],
          "internalType": "struct RentERC721.Lendinfo",
          "name": "lendinfo",
          "type": "tuple"
        },
        {
          "components": [
            {
              "internalType": "address",
              "name": "renter_address",
              "type": "address"
            },
            {
              "internalType": "uint256",
              "name": "rent_duration",
              "type": "uint256"
            },
            {
              "internalType": "uint256",
              "name": "rented_block",
              "type": "uint256"
            },
            {
              "internalType": "uint256",
              "name": "rentfee_amount",
              "type": "uint256"
            }
          ],
          "internalType": "struct RentERC721.Rentinfo",
          "name": "rentinfo",
          "type": "tuple"
        }
      ],
      "stateMutability": "view",
      "type": "function"
    },
    {
      "inputs": [
        {
          "internalType": "address",
          "name": "",
          "type": "address"
        },
        {
          "internalType": "address",
          "name": "",
          "type": "address"
        },
        {
          "internalType": "uint256",
          "name": "",
          "type": "uint256"
        },
        {
          "internalType": "bytes",
          "name": "",
          "type": "bytes"
        }
      ],
      "name": "onERC721Received",
      "outputs": [
        {
          "internalType": "bytes4",
          "name": "",
          "type": "bytes4"
        }
      ],
      "stateMutability": "nonpayable",
      "type": "function"
    },
    {
      "inputs": [],
      "name": "owner",
      "outputs": [
        {
          "internalType": "address",
          "name": "",
          "type": "address"
        }
      ],
      "stateMutability": "view",
      "type": "function"
    },
    {
      "inputs": [],
      "name": "paused",
      "outputs": [
        {
          "internalType": "bool",
          "name": "",
          "type": "bool"
        }
      ],
      "stateMutability": "view",
      "type": "function"
    },
    {
      "inputs": [],
      "name": "platform_fee",
      "outputs": [
        {
          "internalType": "uint256",
          "name": "",
          "type": "uint256"
        }
      ],
      "stateMutability": "view",
      "type": "function"
    },
    {
      "inputs": [],
      "name": "renounceOwnership",
      "outputs": [],
      "stateMutability": "nonpayable",
      "type": "function"
    },
    {
      "inputs": [
        {
          "internalType": "address",
          "name": "collection_address",
          "type": "address"
        },
        {
          "internalType": "uint256",
          "name": "token_id",
          "type": "uint256"
        },
        {
          "internalType": "uint256",
          "name": "_rent_duration",
          "type": "uint256"
        }
      ],
      "name": "rent",
      "outputs": [],
      "stateMutability": "nonpayable",
      "type": "function"
    },
    {
      "inputs": [
        {
          "internalType": "address",
          "name": "collection_address",
          "type": "address"
        },
        {
          "internalType": "uint256",
          "name": "token_id",
          "type": "uint256"
        }
      ],
      "name": "returnNFT",
      "outputs": [],
      "stateMutability": "nonpayable",
      "type": "function"
    },
    {
      "inputs": [
        {
          "internalType": "uint256",
          "name": "_execution_delay",
          "type": "uint256"
        }
      ],
      "name": "set_execution_delay",
      "outputs": [],
      "stateMutability": "nonpayable",
      "type": "function"
    },
    {
      "inputs": [
        {
          "internalType": "address",
          "name": "_fee_collector",
          "type": "address"
        }
      ],
      "name": "set_fee_colletcor",
      "outputs": [],
      "stateMutability": "nonpayable",
      "type": "function"
    },
    {
      "inputs": [
        {
          "internalType": "uint256",
          "name": "_kick_incentive",
          "type": "uint256"
        }
      ],
      "name": "set_kick_incentive",
      "outputs": [],
      "stateMutability": "nonpayable",
      "type": "function"
    },
    {
      "inputs": [
        {
          "internalType": "uint256",
          "name": "_platform_fee",
          "type": "uint256"
        }
      ],
      "name": "set_platform_fee",
      "outputs": [],
      "stateMutability": "nonpayable",
      "type": "function"
    },
    {
      "inputs": [],
      "name": "stopforupgrade",
      "outputs": [
        {
          "internalType": "bool",
          "name": "",
          "type": "bool"
        }
      ],
      "stateMutability": "view",
      "type": "function"
    },
    {
      "inputs": [],
      "name": "togglepaused",
      "outputs": [],
      "stateMutability": "nonpayable",
      "type": "function"
    },
    {
      "inputs": [],
      "name": "togglesstopforupgrade",
      "outputs": [],
      "stateMutability": "nonpayable",
      "type": "function"
    },
    {
      "inputs": [
        {
          "internalType": "address",
          "name": "newOwner",
          "type": "address"
        }
      ],
      "name": "transferOwnership",
      "outputs": [],
      "stateMutability": "nonpayable",
      "type": "function"
    },
    {
      "inputs": [
        {
          "internalType": "address",
          "name": "collection_address",
          "type": "address"
        },
        {
          "internalType": "uint256",
          "name": "token_id",
          "type": "uint256"
        }
      ],
      "name": "withdrawcollateral",
      "outputs": [],
      "stateMutability": "nonpayable",
      "type": "function"
    }
  ],
  "bytecode": "0x608060405261271060038190556004556202a3006005556006805461ffff1916905534801561002d57600080fd5b506100373361004e565b600280546001600160a01b0319163317905561009e565b600080546001600160a01b038381166001600160a01b0319831681178455604051919092169283917f8be0079c531659141344cd1fd0a4f28419497f9722a3daafe3b4186f6b6457e09190a35050565b6125b3806100ad6000396000f3fe608060405234801561001057600080fd5b506004361061018e5760003560e01c806397d51956116100de578063e1b4a08411610097578063f2fde38b11610071578063f2fde38b1461043f578063f5a5453614610452578063f5e8fa2314610465578063faefe1311461047857600080fd5b8063e1b4a08414610410578063ea54396e14610423578063f2167c411461042c57600080fd5b806397d51956146102bf578063a6a15645146102c7578063c955599d146103d8578063ccb568ec146103ea578063cfb551a4146103fd578063dc9d75b01461040657600080fd5b8063434b27c01161014b5780635c975abb116101255780635c975abb14610262578063715018a61461027f57806387e28a30146102875780638da5cb5b1461029a57600080fd5b8063434b27c0146102295780634981f2c51461023c5780634dc32a181461024f57600080fd5b8063014f09d3146101935780630203d8fb1461019d5780630b17e828146101b0578063140b0254146101c3578063150b7a02146101d657806329e6f50314610212575b600080fd5b61019b61048b565b005b61019b6101ab36600461210c565b6104b0565b61019b6101be366004611fae565b6108dd565b61019b6101d136600461227a565b610907565b6101f46101e4366004611fef565b630a85bd0160e11b949350505050565b6040516001600160e01b031990911681526020015b60405180910390f35b61021b60055481565b604051908152602001610209565b61019b610237366004612138565b610914565b61019b61024a36600461227a565b610b92565b61019b61025d366004612223565b610b9f565b60065461026f9060ff1681565b6040519015158152602001610209565b61019b610f94565b61019b6102953660046120b3565b610fa8565b6000546001600160a01b03165b6040516001600160a01b039091168152602001610209565b61019b6112bb565b61036d6102d536600461210c565b6001602081815260009384526040808520825292845292829020825160a08101845281546001600160a01b0390811682529282015483168186015260028201548185015260038201546060808301919091526004830154608080840191909152855190810186526005840154909416845260068301549584019590955260078201549383019390935260080154928101929092529082565b6040805183516001600160a01b03908116825260208086015182168184015285840151838501526060808701518185015260809687015196840196909652845190911660a083015283015160c08201529082015160e082015291015161010082015261012001610209565b60065461026f90610100900460ff1681565b61019b6103f836600461210c565b6112d7565b61021b60035481565b61021b620f424081565b61019b61041e36600461210c565b611759565b61021b60045481565b61019b61043a36600461210c565b611aee565b61019b61044d366004611fae565b611cad565b61019b61046036600461210c565b611d26565b6002546102a7906001600160a01b031681565b61019b61048636600461227a565b611e85565b610493611e92565b6006805461ff001981166101009182900460ff1615909102179055565b60065460ff16156104dc5760405162461bcd60e51b81526004016104d3906123e5565b60405180910390fd5b6001600160a01b038083166000908152600160208181526040808420868552825292839020835160e081018552815486168186019081529382015486166060808301919091526002830154608080840191909152600384015460a0840152600484015460c0840152948252855194850186526005830154871685526006830154858501526007830154958501959095526008909101549383019390935282018190525190911661059e5760405162461bcd60e51b81526004016104d39061240c565b6005548160200151602001516105b49190612485565b6020820151604001516105c790436124de565b1161060a5760405162461bcd60e51b81526020600482015260136024820152722cb7ba9031b0b713ba1035b4b1b5903737bb9760691b60448201526064016104d3565b6000620f424060035483602001516060015161062691906124bf565b610630919061249d565b90506000620f424060045484602001516060015161064e91906124bf565b610658919061249d565b90506000818385602001516060015186600001516060015161067a9190612485565b61068491906124de565b61068e91906124de565b6001600160a01b0387811660009081526001602081815260408084208b8552825280842080546001600160a01b031990811682559381018054851690556002810185905560038101859055600480820186905560058201805490951690945560068101859055600781018590556008019390935588510151915163a9059cbb60e01b8152339181019190915260248101869052929350169063a9059cbb90604401602060405180830381600087803b15801561074957600080fd5b505af115801561075d573d6000803e3d6000fd5b505050506040513d601f19601f820116820180604052508101906107819190612258565b5083516020810151905160405163a9059cbb60e01b81526001600160a01b0391821660048201526024810184905291169063a9059cbb90604401602060405180830381600087803b1580156107d557600080fd5b505af11580156107e9573d6000803e3d6000fd5b505050506040513d601f19601f8201168201806040525081019061080d9190612258565b5083516020015160025460405163a9059cbb60e01b81526001600160a01b0391821660048201526024810186905291169063a9059cbb90604401602060405180830381600087803b15801561086157600080fd5b505af1158015610875573d6000803e3d6000fd5b505050506040513d601f19601f820116820180604052508101906108999190612258565b507f7ea929d9e4d5d36ffead74a15eca76548d1f450a7b3de39a5bd34e8ee8a96ba73387876040516108cd939291906122ce565b60405180910390a1505050505050565b6108e5611e92565b600280546001600160a01b0319166001600160a01b0392909216919091179055565b61090f611e92565b600455565b6001600160a01b038481166000908152600160209081526040808320878452909152902054859185911633146109815760405162461bcd60e51b81526020600482015260126024820152714f6e6c79206c69737465722063616e20646f60701b60448201526064016104d3565b60065460ff16156109a45760405162461bcd60e51b81526004016104d3906123e5565b600654610100900460ff16156109cc5760405162461bcd60e51b81526004016104d3906123bb565b60005b8451811015610b5a5760008582815181106109ec576109ec61253c565b60200260200101516002811115610a0557610a05612526565b1415610a5457838181518110610a1d57610a1d61253c565b6020908102919091018101516001600160a01b03891660009081526001835260408082208a83529093529190912060020155610b48565b6001858281518110610a6857610a6861253c565b60200260200101516002811115610a8157610a81612526565b1415610ad057838181518110610a9957610a9961253c565b6020908102919091018101516001600160a01b03891660009081526001835260408082208a83529093529190912060030155610b48565b6002858281518110610ae457610ae461253c565b60200260200101516002811115610afd57610afd612526565b1415610b4857838181518110610b1557610b1561253c565b6020908102919091018101516001600160a01b03891660009081526001835260408082208a835290935291909120600401555b80610b52816124f5565b9150506109cf565b507fdfc5508fa58a3df211374c94bd817820586fbbbc7d891c93c75cceb088ffc62133878787876040516108cd9594939291906122f2565b610b9a611e92565b600355565b60065460ff1615610bc25760405162461bcd60e51b81526004016104d3906123e5565b600654610100900460ff1615610bea5760405162461bcd60e51b81526004016104d3906123bb565b6001600160a01b038084166000908152600160208181526040808420878552825292839020835160e081018552815486168186019081529382015486166060808301919091526002830154608080840191909152600384015460a0840152600484015460c08401529482528551948501865260058301548716855260068301548585015260078301549585019590955260089091015493830193909352820152805151909116610cc95760405162461bcd60e51b815260206004820152600a602482015269139bdd081b1a5cdd195960b21b60448201526064016104d3565b60008211610d235760405162461bcd60e51b815260206004820152602160248201527f596f752073686f756c642072656e74206d6f7265207468616e203120626c6f636044820152606b60f81b60648201526084016104d3565b602080820151015115610d695760405162461bcd60e51b815260206004820152600e60248201526d105b1c9958591e481c995b9d195960921b60448201526064016104d3565b805160400151821115610db65760405162461bcd60e51b81526020600482015260156024820152743a37b7903637b7339027232a10323ab930ba34b7b760591b60448201526064016104d3565b805160800151600090610dca9084906124bf565b9050600081836000015160600151610de29190612485565b6040805160808101825233808252602080830189815243848601908152606085018981526001600160a01b038e81166000908152600186528881208f8252865288902096516005880180546001600160a01b0319169183169190911790559251600687015590516007860155516008909401939093558751015192516323b872dd60e01b81529394509116916323b872dd91610e8491309086906004016122ce565b602060405180830381600087803b158015610e9e57600080fd5b505af1158015610eb2573d6000803e3d6000fd5b505050506040513d601f19601f82011682018060405250810190610ed69190612258565b50604051632142170760e11b81526001600160a01b038716906342842e0e90610f0790309033908a906004016122ce565b600060405180830381600087803b158015610f2157600080fd5b505af1158015610f35573d6000803e3d6000fd5b5050604080513381526001600160a01b038a1660208201529081018890524360608201526080810187905260a081018590527fd7f2098c778fecbbce6427db4d937f22035ca1ffe84e4c201fa081a4a2ca7edd925060c00190506108cd565b610f9c611e92565b610fa66000611eec565b565b60065460ff1615610fcb5760405162461bcd60e51b81526004016104d3906123e5565b600654610100900460ff1615610ff35760405162461bcd60e51b81526004016104d3906123bb565b6040516331a9108f60e11b8152600481018590526001600160a01b03871690636352211e9060240160206040518083038186803b15801561103357600080fd5b505afa158015611047573d6000803e3d6000fd5b505050506040513d601f19601f8201168201806040525081019061106b9190611fd2565b6001600160a01b0316336001600160a01b0316146110c35760405162461bcd60e51b81526020600482015260156024820152742cb7ba9030b932903737ba103a34329037bbb732b960591b60448201526064016104d3565b6001600160a01b0386166000908152600160209081526040808320878452909152902060070154156111075760405162461bcd60e51b81526004016104d39061238d565b6040518060a00160405280336001600160a01b03168152602001866001600160a01b031681526020018481526020018381526020018281525060016000886001600160a01b03166001600160a01b03168152602001908152602001600020600086815260200190815260200160002060000160008201518160000160006101000a8154816001600160a01b0302191690836001600160a01b0316021790555060208201518160010160006101000a8154816001600160a01b0302191690836001600160a01b03160217905550604082015181600201556060820151816003015560808201518160040155905050856001600160a01b03166342842e0e3330876040518463ffffffff1660e01b8152600401611224939291906122ce565b600060405180830381600087803b15801561123e57600080fd5b505af1158015611252573d6000803e3d6000fd5b5050604080513381526001600160a01b03808b16602083015291810188905290881660608201526080810185905260a0810186905260c081018490527fdfaddcdda82f17e90027b70129529e2483191e5ab9c502045ab8d6905228b12b925060e00190506108cd565b6112c3611e92565b6006805460ff19811660ff90911615179055565b60065460ff16156112fa5760405162461bcd60e51b81526004016104d3906123e5565b6001600160a01b038083166000908152600160208181526040808420868552825292839020835160e081018552815486168186019081529382015486166060808301919091526002830154608080840191909152600384015460a0840152600484015460c084015294825285519485018652600583015487168552600683015485850152600783015495850195909552600890910154938301939093528201819052519091166113bc5760405162461bcd60e51b81526004016104d39061240c565b602080820151908101516040909101516113d690436124de565b111561140f5760405162461bcd60e51b81526020600482015260086024820152672a34b6b2b7baba1760c11b60448201526064016104d3565b6020810151516001600160a01b031633146114615760405162461bcd60e51b81526020600482015260126024820152712cb7ba9030b932903737ba103932b73a32b960711b60448201526064016104d3565b6000620f424060035483602001516060015161147d91906124bf565b611487919061249d565b905060008183602001516060015161149f91906124de565b6001600160a01b03861660008181526001602081815260408084208a855290915280832080546001600160a01b03199081168255928101805484169055600281018490556003810184905560048082018590556005820180549094169093556006810184905560078101849055600801929092558651519151632142170760e11b815293945091926342842e0e9261153d92339290918a91016122ce565b600060405180830381600087803b15801561155757600080fd5b505af115801561156b573d6000803e3d6000fd5b50508451602081015160609091015160405163a9059cbb60e01b815233600482015260248101919091526001600160a01b03909116925063a9059cbb9150604401602060405180830381600087803b1580156115c657600080fd5b505af11580156115da573d6000803e3d6000fd5b505050506040513d601f19601f820116820180604052508101906115fe9190612258565b5082516020810151905160405163a9059cbb60e01b81526001600160a01b0391821660048201526024810184905291169063a9059cbb90604401602060405180830381600087803b15801561165257600080fd5b505af1158015611666573d6000803e3d6000fd5b505050506040513d601f19601f8201168201806040525081019061168a9190612258565b5082516020015160025460405163a9059cbb60e01b81526001600160a01b0391821660048201526024810185905291169063a9059cbb90604401602060405180830381600087803b1580156116de57600080fd5b505af11580156116f2573d6000803e3d6000fd5b505050506040513d601f19601f820116820180604052508101906117169190612258565b507f64428878de74f4cd48acc949dc0f8144191deec7d9df57891114da7c711c699233868660405161174a939291906122ce565b60405180910390a15050505050565b60065460ff161561177c5760405162461bcd60e51b81526004016104d3906123e5565b6001600160a01b038083166000908152600160208181526040808420868552825292839020835160e081018552815486168186019081529382015486166060808301919091526002830154608080840191909152600384015460a0840152600484015460c0840152948252855194850186526005830154871685526006830154858501526007830154958501959095526008909101549383019390935282018190525190911661183e5760405162461bcd60e51b81526004016104d39061240c565b6020808201519081015160409091015161185890436124de565b1161189b5760405162461bcd60e51b815260206004820152601360248201527229ba34b636103932b73a34b733903a34b6b29760691b60448201526064016104d3565b8051516001600160a01b031633146118ea5760405162461bcd60e51b81526020600482015260126024820152712cb7ba9030b932903737ba103437b63232b960711b60448201526064016104d3565b6000620f424060035483602001516060015161190691906124bf565b611910919061249d565b90506000818360200151606001518460000151606001516119319190612485565b61193b91906124de565b6001600160a01b0386811660009081526001602081815260408084208a8552825280842080546001600160a01b031990811682559381018054851690556002810185905560038101859055600480820186905560058201805490951690945560068101859055600781018590556008019390935587510151915163a9059cbb60e01b8152339181019190915260248101849052929350169063a9059cbb90604401602060405180830381600087803b1580156119f657600080fd5b505af1158015611a0a573d6000803e3d6000fd5b505050506040513d601f19601f82011682018060405250810190611a2e9190612258565b5082516020015160025460405163a9059cbb60e01b81526001600160a01b0391821660048201526024810185905291169063a9059cbb90604401602060405180830381600087803b158015611a8257600080fd5b505af1158015611a96573d6000803e3d6000fd5b505050506040513d601f19601f82011682018060405250810190611aba9190612258565b507faf524034569158e35208d5c3858b33596316afc2fc2230e88e8d61543044a92733868660405161174a939291906122ce565b6001600160a01b03828116600090815260016020908152604080832085845290915290205483918391163314611b5b5760405162461bcd60e51b81526020600482015260126024820152714f6e6c79206c69737465722063616e20646f60701b60448201526064016104d3565b60065460ff1615611b7e5760405162461bcd60e51b81526004016104d3906123e5565b6001600160a01b038416600090815260016020908152604080832086845290915290206007015415611bc25760405162461bcd60e51b81526004016104d39061238d565b6001600160a01b038416600081815260016020818152604080842088855290915280832080546001600160a01b03199081168255928101805490931690925560028201839055600382018390556004918201929092559051632142170760e11b81526342842e0e91611c3a91309133918991016122ce565b600060405180830381600087803b158015611c5457600080fd5b505af1158015611c68573d6000803e3d6000fd5b505050507fbeaf299db09d56c31eb3b01e10bba6d0047a36bf8f8c361a0138e156d6f837b2338585604051611c9f939291906122ce565b60405180910390a150505050565b611cb5611e92565b6001600160a01b038116611d1a5760405162461bcd60e51b815260206004820152602660248201527f4f776e61626c653a206e6577206f776e657220697320746865207a65726f206160448201526564647265737360d01b60648201526084016104d3565b611d2381611eec565b50565b611d2e611e92565b6001600160a01b038216600090815260016020908152604080832084845290915290206007015415611d725760405162461bcd60e51b81526004016104d39061238d565b6001600160a01b03808316600081815260016020908152604080832086845290915290819020549051632142170760e11b815291926342842e0e92611dbf923092169086906004016122ce565b600060405180830381600087803b158015611dd957600080fd5b505af1158015611ded573d6000803e3d6000fd5b5050506001600160a01b038316600090815260016020818152604080842086855290915280832080546001600160a01b0319908116825592810180549093169092556002820183905560038201839055600490910191909155517fbeaf299db09d56c31eb3b01e10bba6d0047a36bf8f8c361a0138e156d6f837b29150611e79903390859085906122ce565b60405180910390a15050565b611e8d611e92565b600555565b6000546001600160a01b03163314610fa65760405162461bcd60e51b815260206004820181905260248201527f4f776e61626c653a2063616c6c6572206973206e6f7420746865206f776e657260448201526064016104d3565b600080546001600160a01b038381166001600160a01b0319831681178455604051919092169283917f8be0079c531659141344cd1fd0a4f28419497f9722a3daafe3b4186f6b6457e09190a35050565b600082601f830112611f4d57600080fd5b81356020611f62611f5d83612461565b612430565b80838252828201915082860187848660051b8901011115611f8257600080fd5b60005b85811015611fa157813584529284019290840190600101611f85565b5090979650505050505050565b600060208284031215611fc057600080fd5b8135611fcb81612568565b9392505050565b600060208284031215611fe457600080fd5b8151611fcb81612568565b6000806000806080858703121561200557600080fd5b843561201081612568565b935060208581013561202181612568565b935060408601359250606086013567ffffffffffffffff8082111561204557600080fd5b818801915088601f83011261205957600080fd5b81358181111561206b5761206b612552565b61207d601f8201601f19168501612430565b9150808252898482850101111561209357600080fd5b808484018584013760008482840101525080935050505092959194509250565b60008060008060008060c087890312156120cc57600080fd5b86356120d781612568565b955060208701356120e781612568565b95989597505050506040840135936060810135936080820135935060a0909101359150565b6000806040838503121561211f57600080fd5b823561212a81612568565b946020939093013593505050565b6000806000806080858703121561214e57600080fd5b843561215981612568565b93506020858101359350604086013567ffffffffffffffff8082111561217e57600080fd5b818801915088601f83011261219257600080fd5b81356121a0611f5d82612461565b8082825285820191508585018c878560051b88010111156121c057600080fd5b600095505b838610156121f0578035600381106121dc57600080fd5b8352600195909501949186019186016121c5565b5096505050606088013592508083111561220957600080fd5b505061221787828801611f3c565b91505092959194509250565b60008060006060848603121561223857600080fd5b833561224381612568565b95602085013595506040909401359392505050565b60006020828403121561226a57600080fd5b81518015158114611fcb57600080fd5b60006020828403121561228c57600080fd5b5035919050565b600081518084526020808501945080840160005b838110156122c3578151875295820195908201906001016122a7565b509495945050505050565b6001600160a01b039384168152919092166020820152604081019190915260600190565b6001600160a01b03868116825285166020808301919091526040820185905260a06060830181905284519083018190526000918581019160c08501919084805b8281101561236a5785516003811061235857634e487b7160e01b83526021600452602483fd5b85529483019493830193600101612332565b5050505083810360808501526123808186612293565b9998505050505050505050565b602080825260149082015273616c72656164792072656e746564206974656d2160601b604082015260600190565b60208082526010908201526f73746f7020666f72207570677261646560801b604082015260600190565b6020808252600d908201526c1cde5cdd195b481c185d5cd959609a1b604082015260600190565b6020808252600a9082015269139bdd081c995b9d195960b21b604082015260600190565b604051601f8201601f1916810167ffffffffffffffff8111828210171561245957612459612552565b604052919050565b600067ffffffffffffffff82111561247b5761247b612552565b5060051b60200190565b6000821982111561249857612498612510565b500190565b6000826124ba57634e487b7160e01b600052601260045260246000fd5b500490565b60008160001904831182151516156124d9576124d9612510565b500290565b6000828210156124f0576124f0612510565b500390565b600060001982141561250957612509612510565b5060010190565b634e487b7160e01b600052601160045260246000fd5b634e487b7160e01b600052602160045260246000fd5b634e487b7160e01b600052603260045260246000fd5b634e487b7160e01b600052604160045260246000fd5b6001600160a01b0381168114611d2357600080fdfea26469706673582212205fbc33741c69bef4dbc2f1c2f4d2952d27593daa5b361cf00f9006511ab145bc64736f6c63430008050033",
  "linkReferences": {},
  "deployedLinkReferences": {}
}